{
  "_format": "hh-sol-artifact-1",
  "contractName": "AgreementRegistry",
  "sourceName": "contracts/AgreementRegistry.sol",
  "abi": [
    {
      "anonymous": false,
      "inputs": [
        {
          "indexed": false,
          "internalType": "string",
          "name": "agreementId",
          "type": "string"
        },
        {
          "indexed": false,
          "internalType": "address",
          "name": "subscriber",
          "type": "address"
        },
        {
          "indexed": false,
          "internalType": "address",
          "name": "provider",
          "type": "address"
        }
      ],
      "name": "AgreementRegistered",
      "type": "event"
    },
    {
      "inputs": [
        {
          "internalType": "uint256",
          "name": "",
          "type": "uint256"
        }
      ],
      "name": "agreementIds",
      "outputs": [
        {
          "internalType": "string",
          "name": "",
          "type": "string"
        }
      ],
      "stateMutability": "view",
      "type": "function"
    },
    {
      "inputs": [
        {
          "internalType": "string",
          "name": "",
          "type": "string"
        }
      ],
      "name": "agreements",
      "outputs": [
        {
          "internalType": "string",
          "name": "agreementId",
          "type": "string"
        },
        {
          "internalType": "address",
          "name": "subscriber",
          "type": "address"
        },
        {
          "internalType": "address",
          "name": "provider",
          "type": "address"
        },
        {
          "internalType": "string",
          "name": "termsHash",
          "type": "string"
        },
        {
          "internalType": "bool",
          "name": "isActive",
          "type": "bool"
        },
        {
          "internalType": "uint256",
          "name": "createdAt",
          "type": "uint256"
        }
      ],
      "stateMutability": "view",
      "type": "function"
    },
    {
      "inputs": [
        {
          "internalType": "string",
          "name": "_agreementId",
          "type": "string"
        }
      ],
      "name": "getAgreement",
      "outputs": [
        {
          "components": [
            {
              "internalType": "string",
              "name": "agreementId",
              "type": "string"
            },
            {
              "internalType": "address",
              "name": "subscriber",
              "type": "address"
            },
            {
              "internalType": "address",
              "name": "provider",
              "type": "address"
            },
            {
              "internalType": "string",
              "name": "termsHash",
              "type": "string"
            },
            {
              "internalType": "bool",
              "name": "isActive",
              "type": "bool"
            },
            {
              "internalType": "uint256",
              "name": "createdAt",
              "type": "uint256"
            }
          ],
          "internalType": "struct AgreementRegistry.Agreement",
          "name": "",
          "type": "tuple"
        }
      ],
      "stateMutability": "view",
      "type": "function"
    },
    {
      "inputs": [
        {
          "internalType": "string",
          "name": "_agreementId",
          "type": "string"
        },
        {
          "internalType": "address",
          "name": "_provider",
          "type": "address"
        },
        {
          "internalType": "string",
          "name": "_termsHash",
          "type": "string"
        }
      ],
      "name": "registerAgreement",
      "outputs": [],
      "stateMutability": "nonpayable",
      "type": "function"
    }
  ],
  "bytecode": "0x608060405234801561001057600080fd5b506111a5806100206000396000f3fe608060405234801561001057600080fd5b506004361061004c5760003560e01c80633ae26be2146100515780639c315c711461006d578063cdd82d1d1461009d578063e1a7ccfb146100cd575b600080fd5b61006b600480360381019061006691906109eb565b610102565b005b61008760048036038101906100829190610aac565b610347565b6040516100949190610b58565b60405180910390f35b6100b760048036038101906100b29190610b7a565b6103f3565b6040516100c49190610cd6565b60405180910390f35b6100e760048036038101906100e29190610b7a565b610620565b6040516100f996959493929190610d25565b60405180910390f35b600080846040516101139190610dd0565b9081526020016040518091039020600001805461012f90610e16565b905014610171576040517f08c379a000000000000000000000000000000000000000000000000000000000815260040161016890610e93565b60405180910390fd5b6040518060c001604052808481526020013373ffffffffffffffffffffffffffffffffffffffff1681526020018373ffffffffffffffffffffffffffffffffffffffff168152602001828152602001600115158152602001428152506000846040516101dd9190610dd0565b90815260200160405180910390206000820151816000019081610200919061105f565b5060208201518160010160006101000a81548173ffffffffffffffffffffffffffffffffffffffff021916908373ffffffffffffffffffffffffffffffffffffffff16021790555060408201518160020160006101000a81548173ffffffffffffffffffffffffffffffffffffffff021916908373ffffffffffffffffffffffffffffffffffffffff16021790555060608201518160030190816102a4919061105f565b5060808201518160040160006101000a81548160ff02191690831515021790555060a08201518160050155905050600183908060018154018082558091505060019003906000526020600020016000909190919091509081610306919061105f565b507fd1f4a44510daddc09e0d1c6a67cb38c6cf64e505838aba79dee85a38e29b420a83338460405161033a93929190611131565b60405180910390a1505050565b6001818154811061035757600080fd5b90600052602060002001600091509050805461037290610e16565b80601f016020809104026020016040519081016040528092919081815260200182805461039e90610e16565b80156103eb5780601f106103c0576101008083540402835291602001916103eb565b820191906000526020600020905b8154815290600101906020018083116103ce57829003601f168201915b505050505081565b6103fb6107cf565b60008260405161040b9190610dd0565b90815260200160405180910390206040518060c001604052908160008201805461043490610e16565b80601f016020809104026020016040519081016040528092919081815260200182805461046090610e16565b80156104ad5780601f10610482576101008083540402835291602001916104ad565b820191906000526020600020905b81548152906001019060200180831161049057829003601f168201915b505050505081526020016001820160009054906101000a900473ffffffffffffffffffffffffffffffffffffffff1673ffffffffffffffffffffffffffffffffffffffff1673ffffffffffffffffffffffffffffffffffffffff1681526020016002820160009054906101000a900473ffffffffffffffffffffffffffffffffffffffff1673ffffffffffffffffffffffffffffffffffffffff1673ffffffffffffffffffffffffffffffffffffffff16815260200160038201805461057290610e16565b80601f016020809104026020016040519081016040528092919081815260200182805461059e90610e16565b80156105eb5780601f106105c0576101008083540402835291602001916105eb565b820191906000526020600020905b8154815290600101906020018083116105ce57829003601f168201915b505050505081526020016004820160009054906101000a900460ff161515151581526020016005820154815250509050919050565b60008180516020810182018051848252602083016020850120818352809550505050505060009150905080600001805461065990610e16565b80601f016020809104026020016040519081016040528092919081815260200182805461068590610e16565b80156106d25780601f106106a7576101008083540402835291602001916106d2565b820191906000526020600020905b8154815290600101906020018083116106b557829003601f168201915b5050505050908060010160009054906101000a900473ffffffffffffffffffffffffffffffffffffffff16908060020160009054906101000a900473ffffffffffffffffffffffffffffffffffffffff169080600301805461073390610e16565b80601f016020809104026020016040519081016040528092919081815260200182805461075f90610e16565b80156107ac5780601f10610781576101008083540402835291602001916107ac565b820191906000526020600020905b81548152906001019060200180831161078f57829003601f168201915b5050505050908060040160009054906101000a900460ff16908060050154905086565b6040518060c0016040528060608152602001600073ffffffffffffffffffffffffffffffffffffffff168152602001600073ffffffffffffffffffffffffffffffffffffffff16815260200160608152602001600015158152602001600081525090565b6000604051905090565b600080fd5b600080fd5b600080fd5b600080fd5b6000601f19601f8301169050919050565b7f4e487b7100000000000000000000000000000000000000000000000000000000600052604160045260246000fd5b61089a82610851565b810181811067ffffffffffffffff821117156108b9576108b8610862565b5b80604052505050565b60006108cc610833565b90506108d88282610891565b919050565b600067ffffffffffffffff8211156108f8576108f7610862565b5b61090182610851565b9050602081019050919050565b82818337600083830152505050565b600061093061092b846108dd565b6108c2565b90508281526020810184848401111561094c5761094b61084c565b5b61095784828561090e565b509392505050565b600082601f83011261097457610973610847565b5b813561098484826020860161091d565b91505092915050565b600073ffffffffffffffffffffffffffffffffffffffff82169050919050565b60006109b88261098d565b9050919050565b6109c8816109ad565b81146109d357600080fd5b50565b6000813590506109e5816109bf565b92915050565b600080600060608486031215610a0457610a0361083d565b5b600084013567ffffffffffffffff811115610a2257610a21610842565b5b610a2e8682870161095f565b9350506020610a3f868287016109d6565b925050604084013567ffffffffffffffff811115610a6057610a5f610842565b5b610a6c8682870161095f565b9150509250925092565b6000819050919050565b610a8981610a76565b8114610a9457600080fd5b50565b600081359050610aa681610a80565b92915050565b600060208284031215610ac257610ac161083d565b5b6000610ad084828501610a97565b91505092915050565b600081519050919050565b600082825260208201905092915050565b60005b83811015610b13578082015181840152602081019050610af8565b60008484015250505050565b6000610b2a82610ad9565b610b348185610ae4565b9350610b44818560208601610af5565b610b4d81610851565b840191505092915050565b60006020820190508181036000830152610b728184610b1f565b905092915050565b600060208284031215610b9057610b8f61083d565b5b600082013567ffffffffffffffff811115610bae57610bad610842565b5b610bba8482850161095f565b91505092915050565b600082825260208201905092915050565b6000610bdf82610ad9565b610be98185610bc3565b9350610bf9818560208601610af5565b610c0281610851565b840191505092915050565b610c16816109ad565b82525050565b60008115159050919050565b610c3181610c1c565b82525050565b610c4081610a76565b82525050565b600060c0830160008301518482036000860152610c638282610bd4565b9150506020830151610c786020860182610c0d565b506040830151610c8b6040860182610c0d565b5060608301518482036060860152610ca38282610bd4565b9150506080830151610cb86080860182610c28565b5060a0830151610ccb60a0860182610c37565b508091505092915050565b60006020820190508181036000830152610cf08184610c46565b905092915050565b610d01816109ad565b82525050565b610d1081610c1c565b82525050565b610d1f81610a76565b82525050565b600060c0820190508181036000830152610d3f8189610b1f565b9050610d4e6020830188610cf8565b610d5b6040830187610cf8565b8181036060830152610d6d8186610b1f565b9050610d7c6080830185610d07565b610d8960a0830184610d16565b979650505050505050565b600081905092915050565b6000610daa82610ad9565b610db48185610d94565b9350610dc4818560208601610af5565b80840191505092915050565b6000610ddc8284610d9f565b915081905092915050565b7f4e487b7100000000000000000000000000000000000000000000000000000000600052602260045260246000fd5b60006002820490506001821680610e2e57607f821691505b602082108103610e4157610e40610de7565b5b50919050565b7f41677265656d656e7420616c7265616479206578697374730000000000000000600082015250565b6000610e7d601883610ae4565b9150610e8882610e47565b602082019050919050565b60006020820190508181036000830152610eac81610e70565b9050919050565b60008190508160005260206000209050919050565b60006020601f8301049050919050565b600082821b905092915050565b600060088302610f157fffffffffffffffffffffffffffffffffffffffffffffffffffffffffffffffff82610ed8565b610f1f8683610ed8565b95508019841693508086168417925050509392505050565b6000819050919050565b6000610f5c610f57610f5284610a76565b610f37565b610a76565b9050919050565b6000819050919050565b610f7683610f41565b610f8a610f8282610f63565b848454610ee5565b825550505050565b600090565b610f9f610f92565b610faa818484610f6d565b505050565b5b81811015610fce57610fc3600082610f97565b600181019050610fb0565b5050565b601f82111561101357610fe481610eb3565b610fed84610ec8565b81016020851015610ffc578190505b61101061100885610ec8565b830182610faf565b50505b505050565b600082821c905092915050565b600061103660001984600802611018565b1980831691505092915050565b600061104f8383611025565b9150826002028217905092915050565b61106882610ad9565b67ffffffffffffffff81111561108157611080610862565b5b61108b8254610e16565b611096828285610fd2565b600060209050601f8311600181146110c957600084156110b7578287015190505b6110c18582611043565b865550611129565b601f1984166110d786610eb3565b60005b828110156110ff578489015182556001820191506020850194506020810190506110da565b8683101561111c5784890151611118601f891682611025565b8355505b6001600288020188555050505b505050505050565b6000606082019050818103600083015261114b8186610b1f565b905061115a6020830185610cf8565b6111676040830184610cf8565b94935050505056fea26469706673582212209da39b16a9021698d548735cb93bbbad10019e330de61c6791e3dcb552d2010a64736f6c63430008140033",
  "linkReferences": {},
  "deployedLinkReferences": {}
}